:10000000001B00000004000068DA0000000000008F
:1000100000000000000000000000000000000000E0
:1000200078FFE4B8200118F6D8F99000007F007E30
:1000300007E4F0A3DFFCDEFA7581760236F31225C1
:10004000B7122F219001FF7401F022023F9674AA8B
:100050007583F5758255A574557583FA7582AAA5C1
:1000600074A57583F5758255A5220002293A904042
:100070007FE493FF64316003EF7002002253A87F96
:100080000080FD02246A123CCC902E42E4F0A3745E
:10009000FFF07F01122C361213E122023F93E70991
:1000A000F608DFFA8046E709F208DFFA803E888228
:1000B0008C83E709F0A3DFFA8032E309F608DFFA60
:1000C0008078E309F208DFFA807088828C83E30984
:1000D000F0A3DFFA806489828A83E0A3F608DFFA5E
:1000E000805889828A83E0A3F208DFFA804C80D2AC
:1000F00080FA80C680D4806980F28033801080A628
:1001000080EA809A80A880DA80E280CA803389827F
:100110008A83ECFAE493A3C8C582C8CCC583CCF02B
:10012000A3C8C582C8CCC583CCDFE9DEE7800D89D2
:10013000828A83E493A3F608DFF9ECFAA9F0EDFBD9
:100140002289828A83ECFAE0A3C8C582C8CCC58321
:10015000CCF0A3C8C582C8CCC583CCDFEADEE8807A
:10016000DB89828A83E493A3F208DFF980CC88F0EC
:10017000EF60010E4E60C388F0ED2402B40400501D
:10018000B9F582EB2402B4040050AF232345822347
:100190009008CE73EF8DF0A4A8F0CF8CF0A428CEF9
:1001A0008DF0A42EFE22BC000BBE0029EF8DF08442
:1001B000FFADF022E4CCF875F008EF2FFFEE33FE30
:1001C000EC33FCEE9DEC984005FCEE9DFE0FD5F067
:1001D000E9E4CEFD22EDF8F5F0EE8420D21CFEAD70
:1001E000F075F008EF2FFFED33FD4007985006D56E
:1001F000F0F222C398FD0FD5F0EA22C2D5EC30E729
:1002000009B2D5E4C39DFDE49CFCEE30E715B2D500
:10021000E4C39FFFE49EFE120986C3E49DFDE49CB7
:10022000FC800312098630D507C3E49FFFE49EFEDD
:1002300022C5F0F8A3E028F0C5F0F8E58215827039
:10024000021583E038F022BB010A89828A83E0F537
:10025000F0A3E022500687F009E71922BBFE07E36E
:10026000F5F009E3192289828A83E493F5F0740199
:100270009322BB0110E58229F582E5833AF583E0FC
:10028000F5F0A3E0225009E92582F886F008E6227D
:10029000BBFE0AE92582F8E2F5F008E222E5832AAE
:1002A000F583E993F5F0A3E99322BB010789828ADC
:1002B00083020A11500B09C5F027F7C5F01937F76B
:1002C00022BBFE0D09F8E325F0F3C5F019E338F37E
:1002D00022F889828A8374019325F0C5F0F8E493AB
:1002E0003822BB010DC58229C582C5833AC5830268
:1002F0000A115011C58229F808E5F026F618F5F024
:10030000E58236F622BBFE11C58229F808E225F007
:10031000F5F0F218E23582F222F8E58229F582E55D
:10032000832AF58374019325F0F5F0E4933822BB1A
:10033000010A89828A83F0E5F0A3F0225006F709CA
:10034000A7F01922BBFE06F3E5F009F31922F8BB6A
:100350000111E58229F582E5833AF583E8F0E5F0BD
:10036000A3F0225009E92582C8F608A6F022BBFEB8
:1003700009E92582C8F2E5F008F22275F0087582D5
:1003800000EF2FFFEE33FECD33CDCC33CCC582331F
:10039000C5829BED9AEC99E58298400CF582EE9B24
:1003A000FEED9AFDEC99FC0FD5F0D6E4CEFBE4CD42
:1003B000FAE4CCF9A88222B800C1B90059BA002DDC
:1003C000EC8BF084CFCECDFCE5F0CBF97818EF2F95
:1003D000FFEE33FEED33FDEC33FCEB33FB10D703C4
:1003E000994004EB99FB0FD8E5E4F9FA227818EF6D
:1003F0002FFFEE33FEED33FDEC33FCC933C910D7CC
:10040000059BE99A4007EC9BFCE99AF90FD8E0E4D8
:10041000C9FAE4CCFB2275F010EF2FFFEE33FEEDAE
:1004200033FDCC33CCC833C810D7079BEC9AE8997E
:10043000400AED9BFDEC9AFCE899F80FD5F0DAE460
:10044000CDFBE4CCFAE4C8F922EB9FF5F0EA9E423A
:10045000F0E99D42F0EC6480C864809845F022EB9E
:100460009FF5F0EA9E42F0E99D42F0E89C45F022BB
:10047000E8600FECC313FCED13FDEE13FEEF13FF6A
:10048000D8F122ECF0A3EDF0A3EEF0A3EFF022A858
:10049000828583F0D083D082120C86120C86120CD7
:1004A00086120C86E473E493A3C583C5F0C583C8A4
:1004B000C582C8F0A3C583C5F0C583C8C582C8225C
:1004C000A42582F582E5F03583F58322EC8EF0A435
:1004D000CCC5F0CCCDF8EFA4CEC5F02DFDE43CFCAE
:1004E000E8A42EC8C5F03DFDE43CFCEFA4FFE5F018
:1004F00028FEE43DFDE43CFC22EF4E6012EF60017B
:100500000EEDBB010B89828A83F0A3DFFCDEFA22A9
:1005100089F05007F709DFFCA9F022BBFEFCF309C4
:10052000DFFCA9F022208A030210A4900205E070EB
:1005300002A3E060030210A490016AE07002A3E04D
:1005400060030210A412153A60030210A490013156
:10055000E0702C90011C1213ACFFAEF090010A1257
:1005600013ACD39FE5F09E40030210A4121453E491
:10057000900176F0A3F01215B09002091215C8751B
:100580007100757212756900756A12E4F5B2F5BAF8
:10059000C209F573F574F56BF56C758D20438D20EC
:1005A000758D8043AA08D2AF758B02758EAF200679
:1005B0002412153A701F200C1CE5DB20E217758A07
:1005C000C4200C0DE5DB20E20875870300000080E5
:1005D00006D2098002D209758B11758A5053AAF789
:1005E000D3900204E09490900203E09401400EA3A3
:1005F000E02470F0900203E034FEF08007E4900203
:1006000003F0A3F0123C991214A1900055E075F08C
:1006100003A4902EC3F0A3E4F0A3F012150EF56B23
:10062000A3E0F56C1213CC902E02E0F573A3E0F575
:100630007453997F123F2C123F5C902E1EE0F522DE
:10064000A3E0F523439980E56C2527FFE56B35266C
:10065000FEC3EF9523F56CEE9522F56BE574252727
:10066000FFE5733526FEC3EF9523F574EE9522F56D
:1006700073C390017DE0956CFF90017CE0956BFE6B
:10068000123F818E4A8F4BC390017BE09574FF909F
:10069000017AE09573FE123F818E578F58E57425DD
:1006A0006CFFE573356BFEC3EF9527F525EE9526B8
:1006B000F52412157EE5259FE5249E40048E248FA7
:1006C00025121576900166E524F0A3E525F01216B3
:1006D00000400302107812160A4003021078AE247C
:1006E000AF257C007D10120CAC121614AF70AE6FEB
:1006F000AD6EAC6D9002AE1213F4FBD3120C3F90B2
:1007000002AE40171214F39570FFEE956FFEED9553
:100710006EFDEC956DFC1216148007120C6F000034
:100720000000E47F607EEAFDFC9002AE1213F4FB51
:10073000D3120C3F400A9002AE120C6F0000EA6028
:100740001213A9FFAEF07C007D09120CAC9002AE32
:100750001213F412155C7B0A12143F121614900146
:1007600031E0705290017A1213FFE4FCFDEB257426
:10077000FFEA357312143590017AEEF0A3EFF0A37F
:100780001213FFE4FCFDEB256CFFEA356B12143508
:1007900090017CEEF0A3EFF09002AE1213BA1214A7
:1007A0004D1214E51213C412144D90010A1213C411
:1007B0001214B90210781214E51213C412144D90D9
:1007C000010D1213ACFFAEF09002AE1213F1FBD389
:1007D000120C3F500302108D121398121533FEC3F2
:1007E000EF9576EE9575500302108D90010A121365
:1007F000ACFFAEF07C007D02120CACC8ECC8EDC0C2
:10080000E0EEC0E0EFC0E0121398121533FEE4FCF6
:10081000FDD0E0FBD0E0FAD0E0F9EB2FFFEA3E7B21
:100820000312143790010A1213C412158A90010A98
:100830001213ACD39430E5F094754008747575F0DC
:1008400030120B0F90017FE0604E1215414049902D
:10085000010A1213AC121533FE123F819002B2EE60
:10086000F0A3EFF090010A1213ACFFC31214295049
:1008700010121569400B1213C1F9E475F006120A43
:100880008A90010A1213AC121427400CD312156976
:1008900040061213C11215F7200912121600500D4E
:1008A00012160A500812153A7003020D7A90017E52
:1008B000E0041214FE1214189001327401F0900238
:1008C0000712152222121398FDACF0D39FEC9E4024
:1008D0003490010D1213ACFFC3ED9FFFEC95F0FEB9
:1008E000D3EF9430EE9475400D9002B07475F0A380
:1008F0007430F00211281213A31215339002B0F0D5
:10090000A3EFF080431213A9FFAEF090010D121374
:10091000ACFDACF0C39FFFEC9EFED3EF9410EE94C1
:1009200027400C9002B074D8F0A374F0F08012123B
:1009300013A9FFC3ED9FFEEC95F09002B0F0A3CE9B
:10094000F0E49002B0F0A3F0900131E060431214A3
:1009500062D39400EE64809480401790011F1213BC
:10096000ACFDD3EF9DEE95F040089002091214CB38
:10097000801BD390020AE09400900209E0940040AA
:100980000C90010A1213AC9002B01214C0D20B806A
:100990001190020D7403F0A374E8F07A00794C1200
:1009A000141CD39002B1E094009002B0E0648094F3
:1009B00080500302136EE0F9A3E0FF90010A1213C6
:1009C000C412144D1214621215F0E47BB87A88F93F
:1009D000F8C3120C29500A9002B07488F0A374B8BE
:1009E000F0D390020CE0940090020BE094005007CA
:1009F00090001BE0B4201D121462C39496EE648034
:100A000094805010EF9400EE64809480402B7C0022
:100A10007D0A801A300022900131E0701C121462AD
:100A2000C394B8EE6480948B500F7C007D32120921
:100A3000DB9002B0EEF0A3EFF0900131E070030222
:100A4000134890020DE07002A3E060030213481205
:100A500014621215F0E54F2FF54FE54E3EF54EE5C9
:100A60004D3DF54DE54C3CF54C0551E55170020509
:100A700050C3E55594E8E554940350030212DFAEE9
:100A800050AF51CBEFCB12147DAF4FAE4EAD4DAC4E
:100A90004C120B979002B2EEF0A3EFF0C3E5539F18
:100AA000FFE5529EFE123F819002B4EEF0A3EFF0FC
:100AB000D39432EE94005006E5534552700C9002E8
:100AC000B2E0F552A3E0F5538024D39002B3E09551
:100AD000539002B2E09552400974022553F553E455
:100AE000800874FE2553F55374FF3552F552E4F532
:100AF0004FF54EF54DF54CF550F551F554F555D3F0
:100B0000E5539400E552940040309002B1E09553D3
:100B1000FF9002B0E09552FE123F81C3EF9464EE65
:100B20006480948050081215A4E4F556800CE556B4
:100B3000C3940750051215A40556E5DB20E2429048
:100B400001131213ACFFAEF07C007D0F12140812DB
:100B500014621215F0EB12155C7B1012143F900119
:100B6000131213C4F9EE8014E5DB20E2149002B0F6
:100B7000E0F9A3E0FF9001131213C4C98FF0120B28
:100B80000F9001131213AC24A8FFE5F0801D900113
:100B90000A1213C41214B99001131213C41214B917
:100BA0009002B1E024A8FF9002B0E03461F9900116
:100BB000101213C412144D2290010DE0FBA3E0FAB1
:100BC000A3E0F9120A27FFAEF0900107E0FBA3E0D3
:100BD000FAA3E0F9020A27900133A3A3E0F9A3E006
:100BE000FF90010DE0FBA3E0FAA3E02253997F43BD
:100BF000AB025389FD5395FD5396FD123CDE123F27
:100C00005C4389025395FD5396FD438002439980CE
:100C100022E4FCFDE0F8A3E0F9A3E0FAA3E022E07F
:100C2000FEA3E0FF7D097C00120CACC8ECC8C9ED46
:100C3000C9CAEECACBEFCB227A00795E7E007F0B69
:100C40007D007B00020CD9D3FF900184E09F9001CE
:100C500083E095F0227B0AFEED39FDEC38FCE4FAE6
:100C6000F9F8020B97A3F0A37401F0A322C98FF047
:100C7000020B0F7F087A0179337E007D007B010231
:100C80000CD99002B0E0FEA3E0FF22E50A25E024A3
:100C900028F8E6FE08E622A3E0FEA3E0FBCAEECABF
:100CA000E4F9F822902E427D14E0FEA3E0FF7C00E0
:100CB000020974D39002B1E094649002B0E0940011
:100CC00022902EC07402F022F9EB2FFFEA35F0FEDD
:100CD000ED39FDEC38FC020C63F9E4F5F0020B0F82
:100CE000FFE5F0F0A3EFF022900205E4F0A37464B6
:100CF000F022E50D25E0246EF582E43401F583E071
:100D0000FEA3E0FF229002AEA3A3E0F9A3E0FF90D0
:100D1000010722E0FCA3E0FDA3E0FEA3E022F07EB9
:100D2000007F057D007B007A007959020CD9123EC4
:100D30003D123F5C439940439040902E1CE022902E
:100D4000018DE4F0A374C8F022E4F50EF50DF50C66
:100D5000F50B22C39FFFE5F09E2290001BE064206C
:100D600022900183E0FEA3E0FFD39400EE940022E2
:100D7000AB0EAA0DA90CA80BD3020C3F2FFFEA3E25
:100D8000FEE93DFDE83CFCE4229002B3E0940A90C9
:100D900002B2E0940022902EC4E4F0A3F022E527F2
:100DA0002488FFE5263413FED322F9EE8FF0020BE0
:100DB0000FE4F0A3F0A3F0A322900166E564F0A392
:100DC000E565F0229002B0E552F0A3E553F022E48D
:100DD00090020BF0A3F022D39414E5F0940022F9D2
:100DE000746175F0A8020B0FF0A3F090020FF0A34E
:100DF000F022902EE8F0902EEBF0A322FEEF2401DB
:100E0000FFE43EC31322E0FCA3E0FDC3EF9DFF22FD
:100E1000EE3395E0FDFC22F974FF75F0FA020A8AC0
:100E2000C3E5589572E557957122C3E54B956AE580
:100E30004A9569229002AE020C639001BDE0FBA3CB
:100E4000E0FAA3E09002AFF9E0FF75F002A4F582AA
:100E500085F083120A52FDACF09001C0E0FBA3E0E4
:100E6000FAA3E0F9229002AEE0FF75F002A4F58249
:100E700085F083020A52F583E0FCA3E0FDEF25E054
:100E8000249CF582E43401F583229002C2E0FCA3A5
:100E9000E0FD2407F582E43CF58322EF75F002A41F
:100EA000F58285F083222400F582E43402F583E0A4
:100EB00075F002A42440F582E5F0342EF583227407
:100EC0006A2FF582E43400F583E0FEEF25E0242C60
:100ED000F582E4342EF583E49324C0F582E4342EC5
:100EE000F583EEF0229002B3E0FD25E024DBF582ED
:100EF000E43401F583229002AFE025E024E1F5829D
:100F0000E43401F583229002B3E0FF24E7F582E4A4
:100F10003401F583E004F074E72FF582E43401F541
:100F20008322F0EF25E025E02400F582E4343FF54C
:100F300083E493229002B1E0FEA3E0FF9001E2E09F
:100F40002FF09001E1E03EF0E0FEA3E0FFD322F5B8
:100F500082E43AF583EFF022E0FEA3E02DFFEE35C8
:100F6000F0CDEFCDFF9002C2E0FAA3E0FB2224F027
:100F7000F582E43401F58322241AF582E43EF583F8
:100F800022E5F0FF9002C2E0FCA3E0229002AFE075
:100F900024EDF582E43401F58322F583E493FC74B7
:100FA0000193FDEF25E022E0900221F054F0FFF0E4
:100FB000229002C2E0FEA3E0229002B0E0FEA3E095
:100FC000FF2274B42FF582E43401F58322FFEE345E
:100FD000FEFE7C007D0A1209747D32120986EF2222
:100FE00025E024A2F582E43401F5832224EAF58287
:100FF000E43401F58322C3E0FDEF9D7480F86E9820
:1010000022902EC07402F022EC8DF0020B2EE490A0
:1010100001F3F090021AF02225E02496F582E434E0
:1010200001F583E5F0F0A322F0C201C204E49001CF
:10103000F4F090021BF022F582E43402F583E02202
:10104000120A27FFAEF09001BD22FDACF09001BD69
:101050002274F12BF582E43401F583E4F02290024E
:1010600021E0FFED22A3F0A37401F0A322C39DFFB2
:10107000E5F09CFE229002AFE0FD7F05229002AFDA
:10108000E0FD7F0422E4F0A3F09001BD22F5ABF572
:10109000AD7589FF7599FF229002AEE004F022122F
:1010A0000A27C39FFFE5F09E229001871213F4FBED
:1010B000E9C0E0EAC0E0EBC0E09001221213ACFF0F
:1010C000E4FCFDD0E0FBD0E0FAD0E0900187121400
:1010D000A890018CE004F0700690018BE004F09081
:1010E000018DE07002A3E06003021A98900187125C
:1010F00014F3FFEEC0E0EFC0E0121477D0E0FFD0B1
:10110000E0FE120B97900187120C63900187A3A356
:10111000E0FFA3E0900185CFF0A3EFF0A3120C6FE6
:101120000000000090018B12159174C8F09002032A
:10113000E07002A3E06003021A98900131E07003AE
:10114000021A98900181E0FEA3E0FF4E7021900109
:1011500085E0FDA3E0900181CDF0A3EDF090010AC0
:101160001213ACFD900183E5F0F0A3EDF0804D90FB
:1011700001851215E6EE9CFE123F8190018F12133D
:10118000C412158A90017FE0703290018F1213AC67
:10119000C31215B8502090020DE07002A3E0700752
:1011A00090017F04F0801590010A1213ACFF9001AA
:1011B000831214C1800690017F7401F090017FE0DA
:1011C0007003021A981215415003021A9890010AEE
:1011D0001213AC121533FE123F819002B0EEF0A351
:1011E000EFF0A37432F0900192EEF0A3EFF09001D3
:1011F0008F1213AC1215B740069002B27446F090ED
:10120000010A1213AC12142740109002B2E0FFD36F
:101210009002B1E09F12149A5005121493405AE4C0
:1012200090017FF0900187120C6F00000000E490A5
:10123000018BF0A3F090018F1213AC1215B740058B
:1012400012151F800F90018D7403F0A374E8F01243
:101250001493401C900185E0FFA3E0900181CFF042
:10126000A3EFF090010A1213ACFF9001831214C196
:10127000E4900192F0A3F0803F90010A1213AC12A7
:1012800014274012D39002B1E0940A12149A400637
:101290001213C11215F790010A1213ACC3121428CD
:1012A00050169002B1E0940A12149A400B1213C126
:1012B000F9E475F006120A8A900131E0700B900192
:1012C00081121592F090017FF022E4F50BF50CF5F8
:1012D0000DF50EF511F512F50A12150EFEA3E02517
:1012E00012F512EE3511F5111213CC902E02E0FE1C
:1012F000A3E0250CF50CEE350BF50B123F29123F40
:101300005C439980902E1EE0FEA3E0250EF50EEEC4
:10131000350DF50D050AE50AC3940340BC12157698
:10132000E527240CFFE52634FEFED3EF950CEE9561
:101330000B401590016AE07002A3E0701290016A00
:1013400004F0A374F4F08007E490016AF0A3F09035
:101350000162E50BF0A3E50CF0900168E511F0A344
:10136000E512F02527FFE5113526FEC3EF950EF5B2
:1013700012EE950DF511E50C2527FFE50B3526FE40
:10138000C3EF950EF50CEE950DF50B90017AF0A3D9
:10139000E50CF0A3E511F0A3E512F0250CFFE50B39
:1013A0003511FEC3EF9527F510EE9526F50F1215B2
:1013B0007EE5109FE50F9E40048E0F8F1090015E1A
:1013C000E50FF0A3E510F0A3E50DF0A3E50EF0AFF7
:1013D00010AE0F122D1E900166EEF0A3EFF09000FC
:1013E0001BE0B42003121418900166E0FEA3E0FF96
:1013F000E4FCFDE5612FF561E5603EF560ED355FEC
:10140000F55FEC355EF55E0563E56370020562C36A
:10141000E56794E8E5669403402AAE62AF63CBEFDC
:10142000CB12147DAF61AE60AD5FAC5E120B978ED8
:10143000648F65E4F561F560F55FF55EF562F5636F
:10144000F566F567D3E5659400E56494004059902E
:101450000167E09565FF900166E09564FE9002B437
:10146000F0A3EFF0D394F8EE6480947F4015E094FD
:10147000089002B4E0648094805008121599E4F555
:101480006880259002B4E0FEA3E0FF123F81D3EF15
:101490009414EE648094804003756803E568C394F7
:1014A0000350051215990568900166E0F548A3E020
:1014B000F54978287C007D007B007A00792A7E003F
:1014C0007F2002094E9002AFEFF09002B2740CF050
:1014D0002405A3F01216399002AF12164812182AEA
:1014E00012163C75F002EF12164D12184D9002B014
:1014F000F0A3EFF0123F819002B21217D640030220
:101500001D669002AFE0FF121770E0600AEF12163E
:10151000DAE4F0A3F0800C1217991216D6EE8FF0D1
:10152000120A111216D6121728940FEE64809480B6
:1015300040199002AFE0FD1216DAE4F0A3F01216A3
:1015400039ED12167CE475F0018021C3EF94F1EEC1
:101550006480947F50199002AFE0FF1216DAE4F035
:10156000A3F012163912167B74FFF5F0120AC2901E
:1015700002AFE0FD24B41217A5E4F07F04123D8B06
:10158000121855021E2D9002AFE0FF24B41217A5C9
:10159000E070481217A27401F0121799123F81C32C
:1015A000EF9432EE6480948050319001BD12163C6D
:1015B0009002AFE012164AFBAAF01217997C007D48
:1015C000031209DBC3EB9FFFEA9EFE12163990025D
:1015D000AFE012167CEE8FF0120B2E121799123F0D
:1015E000819002AFE0FD1217C0E0FAA3E0D39FEABA
:1015F0009E402674ED2D121772E070239002AFE02A
:101600007F0512363512185512335CEF6011121631
:101610001A12167B1217E88006121855123D8BC35A
:101620009002B1E094F49002B0E06480947F501A8C
:1016300012185D12363512185D12335CEF6011120C
:10164000161A12167B1217E8800612185D123D8BCF
:101650001216399002AF12164812182A12163C754B
:10166000F002EF12164D12184D9001C612163C9062
:1016700002AFE012167CEE8FF0020B2EE4FB74F04A
:101680002B121750E064016003021FF874EA2B125A
:1016900017CEE0FA6003021F41EB6401705D121681
:1016A0006A121787BF2003D38001C34005E490026C
:1016B00021F090021BE0FF6401701C90021AE09080
:1016C0000221B4010AE04409F0C201D2048017E00B
:1016D0004401121808801CEF900221B4020DE0446E
:1016E00005F0C201C2041218318008E04401F0C2C2
:1016F00001C20412183E121672EFF0EB640270552C
:1017000012166A121787BF2003D38001C34005E475
:10171000900221F090021BE0FF6401701C90021AFD
:10172000E0900221B4010AE04406F0D201C2048034
:101730001CE044041218088014EF900221B4020542
:10174000E044058003E04404F0C201C20412183EE4
:10175000121672EFF090020FE4F0A37464F0021F0F
:10176000EEEA64016003021FEEEB6401705812168A
:101770006A121787BF2003D38001C34005E490029B
:1017800021F090021AE0FFB4020D900221E0440A19
:10179000F0D201D2048017EF640170229001F4E0CE
:1017A000900221B4010DE04406F0D201C2041218E7
:1017B00031800BE04402F0D201C2041217EE12187D
:1017C0003E121672EFF0EB6402704312166A1217A3
:1017D00087BF2003D38001C34005E4900221F0902D
:1017E00001F3E06401701F90021BE0900221B4013C
:1017F0000AE04409F0C201D204800BE04408F0C2C0
:1018000001D2041217EE12183E121672EFF074F0A5
:101810002B121750E4F0C28A0BEB64036003021E24
:101820005E7F04229001FFE024FE601914602C14F6
:101830007003022141240360030221A79001FF7479
:1018400002F012381F123F6F7F017E0012315C9050
:1018500001FF7403F0E4900219F022123EAC9001F3
:10186000FBE07003022126900219E004F0E49002EC
:10187000ADF09002ADE0FFC394034003022121903C
:1018800001BA12163C9002ADE0FE12162A75F00263
:10189000EE12167F1217E89001BA12163C9002ADB4
:1018A000E0FE12164A12182A12163C75F002EE12C9
:1018B000167F1217E8EF6401703B121791FF240A9C
:1018C00012175AE4F0EF240B12175AE4F09001BA01
:1018D00012163C9002ADE012164A121761FD240E5A
:1018E000121674EFF09002ADE012164AFFED240FCD
:1018F000121674EFF09002ADE06402703B12179183
:10190000FF240C12175AE4F0EF240D12175AE4F0DA
:101910009001BA12163C9002ADE012164A121761FD
:10192000FD2410121674EFF09002ADE012164AFF7B
:10193000ED2411121674EFF09002ADE004F00220D5
:1019400052E49001FBF0900219E0C39403407890B8
:101950000195747EF0E4900219F09001FF7404F098
:10196000221237AE123A5B900194E07003123EAC43
:101970009001FBE0B4012D122FE7E49002ADF0904E
:1019800002ADE0FFC39403500B1223179002ADE0A9
:1019900004F080EB1221A8121E5C9001FFEFF0E42E
:1019A0009001FBF0900214E0A3F090016AE0700453
:1019B000A3E06401700C90016AF0A3F09001FF7441
:1019C00002F0E4900214F0229002AE747EF0E4A3E0
:1019D000F09002AFE0FDC3940340030222C57F02F2
:1019E00012335CEF60031217EE9002AFE01217CCD7
:1019F000E060030222579002AFE0FF25E024A8F543
:101A000082E43401121656E0FEA3E0C39DEE9C4032
:101A1000409002AFE09002AEF01217CC7401F0904B
:101A200001F3E004F090021AF09002AFE0FD12170B
:101A30004E7401F0E4FF12230C12230C1236359081
:101A400002AFE0FD7F0812363512176C7401F0808A
:101A5000129002AFE0FDE4FF12335CEF6005121755
:101A60006CE4F09002AFE0FD7F0112335CEF606C3C
:101A7000E49001F40222B79002AFE0FF25E024AE2B
:101A8000F582E43401121656E0FEA3E0C39DEE9CFD
:101A900040379002AFE0FD9002AEF07F0812335C59
:101AA000EF60399001BDE0FBA3E0FAA3E09002AF44
:101AB00012162712167B1217E81222D412174E7430
:101AC00001F09001F4E004800E1222D412174E743B
:101AD00001F09001F4E004F090021BF09002AFE0FE
:101AE00004F00221B19002AEE0FF9001FCE06F60D3
:101AF00002EFF0229002AFE0FD24EAF582E4340127
:101B0000F583E4F07F08123D8B9002AFE0FDE4FF27
:101B10001236359002AFE0FD7F01123D8B9002AF8F
:101B2000E0FD7F011236359002AFE022123D8B902E
:101B300002AFE0FD7F02229002AEEFF012163912E2
:101B4000164512182A12163C75F002EF12164DC3F4
:101B50009DE5F09C40279001BDA3A39002AEE0124A
:101B6000164AFDEF1217F8EDF09001C612163C125E
:101B7000164512165CE5F0F0A3EDF0801F9002AE62
:101B8000E0FF12165E12186512163C75F002EF1295
:101B9000164DFF9002AEE01217F8EFF09002AEE0A3
:101BA000FF12165EE0FCA3E0C39432EC94005007F1
:101BB00012165DE4F0A3F09002AEE0FF64017060E5
:101BC00012165D121728944AEE9401401B9002AE43
:101BD000E0FBEF24B61217AD244AFFEE3401FEEB12
:101BE00012165EEEF0A3EFF09002AEE0FD12165E6C
:101BF000E0121744240A12172FED12165EA3E0FF1D
:101C0000EB240B12172F12163912164512165C12FE
:101C10001738240E12172FCFEDCFEB240F12172FEA
:101C20009002AEE0FF6402706012165D12172894F5
:101C30002CEE9401401B9002AEE0FBEF24D412176F
:101C4000AD242CFFEE3401FEEB12165EEEF0A3EF96
:101C5000F09002AEE0FD12165EE0121744240C1262
:101C6000172FED12165EA3E0FFEB240D12172F12B3
:101C7000163912164512165C121738241012172F37
:101C8000CFEDCFEB241112172F22C0E0C083C0820A
:101C9000C0D0D2AF900214E004F0D3900204E094DC
:101CA00000900203E09400400CA3E024FFF09002B7
:101CB00003E034FFF0D3900206E09400900205E0C8
:101CC0009400400CA3E024FFF0900205E034FFF004
:101CD000D3900208E09400900207E09400400CA327
:101CE000E024FFF0900207E034FFF0D390020AE016
:101CF0009400900209E09400400CA3E024FFF090CF
:101D00000209E034FFF0D390020CE0940090020B43
:101D1000E09400400CA3E024FFF090020BE034FFBD
:101D2000F0D3900212E09400900211E09400400C75
:101D3000A3E024FFF0900211E034FFF0D3900210F2
:101D4000E0940090020FE09400400CA3E024FFF028
:101D500090020FE034FFF0D390020EE09400900266
:101D60000DE09400400CA3E024FFF090020DE0345D
:101D7000FFF0C3E56794E8E566940350080567E55E
:101D80006770020566C3E55594E8E554940350086E
:101D90000555E55570020554D390018EE0940090EE
:101DA000018DE09400400CA3E024FFF090018DE051
:101DB00034FFF0D390016BE0940190016AE094004D
:101DC000400CA3E024FFF090016AE034FFF0D0D093
:101DD000D082D083D0E0327E007FFF7D007B017A0D
:101DE000007904120CD99002C27400F0A37404F0BC
:101DF0009001BA7401F0A37400F0A374B8F09001DC
:101E0000C07401F0A37400F074AC1218457400F0B3
:101E1000A37494F09001BD7401F0A37400F0A37456
:101E2000C6F09001C67401F0A37400F074D21218C9
:101E3000457400F0A3741F1218467401F0A37402D5
:101E4000F0902DE0E493121763FDF5828C83A3EFED
:101E5000F0900002E0FFED2404121674EFF0900001
:101E600001E0FFED2405121674EFF0900003E0FF8F
:101E7000ED2406121674EFF0902DE2E493FFED24AA
:101E800012121674EFF0902DE3E493FFED24141278
:101E90001674EFF09001CF7401F0A37400F0A374F6
:101EA0003CF0E4FF75F002EFA42401F582E5F03484
:101EB0002EF583E493FE74542FF582E43400F58309
:101EC000EEF0EF25E0242DF582E4342EF583E49343
:101ED000FE746A2FF582E43400F583EEF012169F4B
:101EE0000FEFB416BF902F56E0900058F0902F5689
:101EF000E090006EF09000FF7401F09000FEF09012
:101F0000003A7410F090001BF0900028F0A37420A9
:101F1000F09002037413F0A37488F022900176E02D
:101F2000FEA3E0FFC39404EE9400502F900105E05F
:101F3000FCA3E0FDEF25E0FFEE33FE746E2FF5828B
:101F400074013EF583ECF0A3EDF0900177E004F02E
:101F50007006900176E004F00227C1750D0112149D
:101F6000D2E50D25E0246CF582E43401F583EEF032
:101F7000A3EFF0050DE50DB404E41213A9FF9001E1
:101F8000051215E6E5F09CFE123F81C3EF9428EEA2
:101F900064809480503C900131E0702890010D12D3
:101FA00013ACFFC3900106E09FFF900105E095F0A0
:101FB000FE123F81C3EF9414EE648094805005902C
:101FC000010D80039001071213ACFF900174E5F03E
:101FD000800B900105E0FFA3E0900174CFF0A3EF28
:101FE000F0E4F50CF50BF50AF509F50DD390017742
:101FF000E0950D900176E09400401E1214D2E4FCAE
:10200000FDE50C2FF50CE50B3EF50BED350AF50A59
:10201000EC3509F509050D80D3AF0CAE0BAD0AAC5C
:1020200009EEC0E0EFC0E0900176121478D0E0FF36
:10203000D0E0FE120B978F0C8E0B8D0A8C092212AA
:102040001529F515F516852811852912852813857A
:102050002914F50A12146BFFD3E5149FE5139E4073
:10206000078E138F14850A16C3E5129FE5119E5043
:10207000078E118F12850A15050AE50AB410D5E4FA
:10208000F50FF510F50AE516650A602EE515650AE7
:102090006028E510450F7010E50A25E02428F8E6D1
:1020A000F50F08E6F510801212146B2510FFE50FEE
:1020B0003E1215DCF50FEF13F510050AE50AB41012
:1020C000C5121529F50A12146BFFC3E5109FFFE531
:1020D0000F9EFE123F81D3EF9419EE6480948040EE
:1020E0000FE4FCFDE50E2510F50EE50D350F800F14
:1020F00012146BFFE4FCFDE50E2FF50EE50D3EF529
:102100000DED350CF50CEC350BF50B050AE50AC3A6
:10211000941040B2AF70AE6FAD6EAC6D1215504002
:102120001AE50E9570F50EE50D956FF50DE50C951C
:102130006EF50CE50B956DF50B8003121529E47F08
:10214000607EEAFDFC121550400BE4750E60750DC3
:10215000EAF50CF50BAE0DAF0E22C0E0C083C082D5
:10216000C0D0ECC0E0EDC0E0EEC0E0EFC0E0D2AF28
:10217000E5DB30E419D20CC208E5DB30E102802E49
:102180009002C1E5DFF09002C4E4F0022A38E5DBFA
:1021900030E50FD206300805C208022A38C20C0208
:1021A0002A38C208E5DB30E13AE5DB30E010900286
:1021B000C5E0FF04F0123F45E0F5DF022A38900247
:1021C000C5E0FFB40813208A10D28A9002C2E0FC56
:1021D000A3E02407123F4BE4F0EF641A707AD207B1
:1021E000022A389002C4E0700EA3E5DFF09002C42A
:1021F0007401F0D20880619002C5E0903C2F93FFFB
:10220000B4FF089002C1E5DFF08047EF640F70294A
:102210009002C5E0FFA3E0FCA3E0FD123F4AE054BA
:102220000FF09002C5E0FF04F0ED123F4AE0FFE539
:10223000DF54F0FEEF4EF0801F9002C5E0FF123F2A
:1022400045E5DFF0EFB4240A9002057401F0A374B1
:10225000F4F09002C5E004F075DBFFD0E0FFD0E0C1
:10226000FED0E0FDD0E0FCD0D0D082D083D0E032F0
:102270009002B3EFF09001BD12163C9002B312161B
:1022800048FDACF09001BA12163C75F002EF121640
:102290004D12184D1216C5EE8FF0120A11ED1216DE
:1022A000CAE0FEA3E0FF123F81D3EF9414EE6480F6
:1022B000948050589002B3E01216CA121728940363
:1022C000EE6480948040161216C512186512163CF2
:1022D00075F002ED12167FE475F0018020C3EF94D3
:1022E000FDEE6480947F50189002B3E0FF1216CA8E
:1022F00012186512163C12167B74FFF5F0120AC212
:102300009002B3E024E71216FAE4F0229002B3E060
:102310001216CAE0FEA3E0FF123F819002B3E01262
:1023200017C0E0FCA3E0D39FEC9E400B1216E6E042
:10233000D39402403780091216E6E0D39401402C72
:102340009002B3E0FF1216CAE4F0A3F09001BA12B3
:10235000163C75F002EF12164D12182312163C901F
:1023600002B3E012167CEE8FF0120B2E2290013198
:10237000E06006121453022C2B9001331213F4FB6D
:10238000E9C0E0EAC0E0EBC0E01213A9FFE4FCFD05
:10239000D0E0FBD0E0FAD0E09001331214A8900115
:1023A00038E004F07006900137E004F0900207E096
:1023B0007002A3E06003022C359001331214F3FF86
:1023C000EEC0E0EFC0E0121477D0E0FFD0E0FE12E4
:1023D0000B97900133120C6390010D1213AC24285B
:1023E000FFE435F0FE9001331213F1FBD3120C3FE2
:1023F0004039900203E07002A3E0702F200B2C9074
:10240000013AE004F07006900139E004F0D3900145
:102410003AE09405900139E09400401E1213B7127F
:10242000144DE4900139F0A3F0800F1213B7121489
:102430004DE4900139F0A3F0C20B900133120C6F00
:1024400000000000E4900137F0A3F090020774024E
:10245000F0A374BCF0229002B4EFF09002B9E4F063
:10246000A374FFF0E4A3F0A3F0A304F0A374FFF0BF
:102470001217E1902EC37408F0E49002B5F0A3F0B7
:102480009002B5E0FEA3E0FFC39409EE9400400380
:10249000022D1BEF9407EE940040067E007F018022
:1024A000199002B5A3E004FFE47E01C8EFC80880DC
:1024B00006CEA2E713CE13D8F8FF9002B7EEF0A332
:1024C000EFF0902EC07419F0902EC0E030E2F99039
:1024D00002B4E0FF75F002A42400121696E0FCA3FB
:1024E000E0FD1217E1D3ED94FFEC940F401790023A
:1024F000B7E0FCA3E0FD75F002EF121693EC8DF04F
:10250000120A1180259002B412168FC083C082E097
:10251000FEA3E0FF9002B7E0FCA3E0FDC3EF9DFF48
:10252000EE9CD082D083F0A3EFF09002B6E004F0EE
:1025300070069002B5E004F0022C607F0022900249
:10254000B6EEF0A3EFF0E55C455B700C9002B6E0F0
:10255000F55BA3E0F55C80169002B7E0255CFF9088
:1025600002B6E0355B1215DCF55BEF13F55C055D3B
:10257000E55DD3940A400D855B59855C5AE4F55BB3
:10258000F55CF55DD3E55A9400E5599400405E9002
:1025900002B7E0955AFF9002B6E09559FE123F81CE
:1025A000C3EF940FEE64809480502AAE59AF5A7DE9
:1025B000031214069002B6E0FEA3E0FFE4FCFDEB7C
:1025C0002FFFEA3EFEED39FDEC38FC7802120C508C
:1025D0009002B680139002B7E0255AFF9002B6E051
:1025E0003559C313FEEF13FFEEF0A3EFF09002B6E0
:1025F000E0FEA3E0FF2274A42F12324DE4F022008B
:102600000408AB1BE4FF3006169002C2E0FCA3E016
:10261000F5828C83E0FE54F0FFEE540FF0C20622E8
:10262000029203030A120DA00EA60FFF0C020BFF6D
:1026300023F724072504070127082A0828062B0664
:1026400029032C032D042E042F0426040212030652
:102650000A100D100E800FFF0C020BFF23F4240450
:102660002504070127102A1028042B0429032C0312
:102670002D202E202F1026209002AF7408F0240564
:10268000A3F0E4FF122A5012163912182012163C39
:1026900012187FFE9002B1F0A3EFF0123F8190027A
:1026A000AF1217D6501C121714940AEE648094804F
:1026B00040028044C3EF94F6EE6480947F5065023C
:1026C0002EF39002B1E0FEA3E0FF123F819002B032
:1026D000D31217D740169001BD12163C120A27FFDD
:1026E000121639E5F08FF0120B0F80381217149480
:1026F00064EE648094804010E49001E1F0A3F01255
:102700001639E475F0018019C3EF949CEE6480944F
:102710007F5011E49001E1F0A3F012163974FFF537
:10272000F0120A8A12163912182012163C12187F5B
:10273000F99001C6E0FBA3E0FAA3E0C98FF0020B19
:102740000F7F8F7A0179051214599001077401F0F7
:10275000A37400F074441214457400F0744612140B
:10276000457400F0A374481214467400F0A3743248
:102770001214467400F0A3742E1214467400F0A3D1
:10278000742CF09001227401F0A37400F0A374265D
:10279000F090018F7401F0A37400F0A37484F090A2
:1027A00001257401F0A37400F0A3741C1214467484
:1027B00000F0A37422F09001197401F0A37400F0EA
:1027C000A374361214467400F0A3742A12144674CB
:1027D00000F0A37438F07575007576C89001191271
:1027E00013C4F9E5758576F0120B0F90011C1213D6
:1027F000C4F9E475F064120B0F90011F1213C4F9B1
:10280000E475F096020B0F122E58E49002AEF09091
:1028100002AEE0FFC3940340030230A5EF607A12DA
:102820002A509002AEE0FF121CA5300319200116B9
:102830002004139001C612163C9002AEE012167CE2
:10284000E4F5F0120B2E9001C612163C9002AE1267
:102850001648FDACF0C39406EC648094805002806E
:102860004DC3ED9432EC6480948050509001C612B8
:10287000163C9002AEE075F002A4F582E92582F9DB
:10288000EA35F0FA120A27FFAEF07C007D02120949
:10289000DBEE8FF0120B0F80239001C612163C90D6
:1028A00002AE121648C3E5F064809480500E900189
:1028B000C6A3A312167BE4F5F0120B2E9002AEE035
:1028C00004F0022FEFE49001FBF022200272D2020A
:1028D000E4FFEF25E024F3F582E4343E12177A2476
:1028E000A8F582E43401F583ECF0A3EDF0EF25E0E8
:1028F00024EDF582E4343E12177A1217C2ECF0A3ED
:10290000EDF0EF25E024F9F582E4343E12177A2445
:10291000AEF582E43401F583ECF0A3EDF00FEFB4F3
:1029200003B09001A4A3E0121763FDF5828C83A38A
:10293000A3EFF09001A6A3E08D828C83A3A3A3F064
:10294000121791F5828E83A3E0B4AA03123B76128C
:102950001791FF121758E0B41008EF121758E4F05F
:10296000D20A121791FF241B12175AE0700DEF24A0
:102970001C12175AE0B41003123B33229002B0EE3F
:10298000F0A3EF1214FE9002B0E07002A3E0600327
:102990001234971239ABE4900176F0A3F07F101255
:1029A0003D5D1214C8A37402F0A374BCF09001053D
:1029B000E0F9A3E0FFA31213C412144D90010A1210
:1029C00013C41214B99001101213C41215BF900150
:1029D000131213C41214B99001161213C41215BFA6
:1029E00090003A7410F0E4900131F0900133120C31
:1029F0006F00000000900137121591F09001051250
:102A000013BC12144DE4900132F09002111215C85B
:102A1000FE7F10FD7B017A01797F120CD990012293
:102A20001213AC9001851214C012151F22EF75F01D
:102A300003A42436F582E43402F583E58222F5838B
:102A4000E493FE740193FFE4FCFD902F60E0F8A393
:102A5000E0F9A3E0FAA3E02FFFEA3EFEED39EC38FF
:102A6000222EF582E43583F5832274A42BF582E4CB
:102A70003402F58322E4E075F008A42454F582E4DE
:102A80003402F58322EFF0FCA3E0FE131313541F6E
:102A90002225E02424F582E43402F58322E0FF7449
:102AA000017E00C8EFC80822902F60A3A3E0FEA318
:102AB000E0FF22F583C37401939FE4939E2225E0F7
:102AC0002463F582E4343E22E0FCA3E0FDD39FECD6
:102AD0009E2225E02477F582E4343E221217E1900D
:102AE00000FEE0601BE49002AEF09002AEE0FF2436
:102AF0006A1216A2121878E0B416EFE49000FEF005
:102B0000E49002AEF09002AEE0FFC3940350117463
:102B1000002F121688E4F0A374FFF012187880E5F5
:102B2000E49002AEF09002AEE0FFC39403504A126C
:102B300038859002AEE02400121817FF122C36EFF1
:102B40007031E412186D9002AEE0B4010F121686D7
:102B5000E0FFA3E0900216CFF0A3EFF09002AEE00A
:102B6000FFB4020F121686E0FFA3E09001FDCFF044
:102B7000A3EFF0121878023305023BB69002B5EDD0
:102B8000F09002B4123265A3F0EE5407A3F0900265
:102B9000B6E0FFEC12320E2F123242E0FD7C0090C4
:102BA00002B712327D8005C333CE33CED8F9FFEEA3
:102BB0005CFEEF5D4E60621232889002B4123255B4
:102BC000C083C0829002B5E0D082D08375F002123B
:102BD0000CA01232A85042C3EF9DFFEE9CFE900263
:102BE000B4E0FD12329E123293402E9002B6E0FF06
:102BF000ED12320E2F123242C083C082E0FF9002EB
:102C0000B7E0FE7401C8EEC8088002C333D8FCF4F4
:102C10005FD082D083F07F01227F0022758A5075B9
:102C20008601538AEF9000027411F0900001742223
:102C3000F09000037433F07599BF759A40E4FFFE7D
:102C4000C2950020960CD295003096069000027432
:102C500087F00FBF00010EEF640A4E70E37590FF1E
:102C600075999F759A607580FF7589FE759501004D
:102C70000000E4FEFF3080063095032096069000A9
:102C8000017487F00FBF00010EEF640A4E70E6E496
:102C9000F5AB75AC1DF5ADF5AF7589FF75913E755A
:102CA00099FFF59675931CF59BF595F592F59A535A
:102CB00088FED28AD20D22120866902E42E0FEA330
:102CC000E0242AFFEE34FE9002B2F0A3EFF0123CB3
:102CD000CC1214A1902EC314F0123F5C902E027DF2
:102CE000091214898E268F277D10120CACEF24E078
:102CF000F570EE34B1F56FED34FFF56EEC34FFF5A1
:102D00006D1213E1123F29902E5EE4F0A374FFF0E0
:102D10007F0F122C36902E5EE0FEA3E0D394F0EEEF
:102D200094014007902E5EE4F0A3F04399801215C1
:102D3000769000217410F0121484EF2444FFEE34D6
:102D4000FDF99001251213C4C98FF0020B0F902ECC
:102D5000C0E4F090021DF090021CF0FC74002C12F4
:102D60001817FE131313541FFDEE5407FEED1460E5
:102D70001B04702E90021CE0FD7401C8EEC8088090
:102D800002C333D8FC4D90021CF0801690021DE067
:102D9000FF7401C8EEC8088002C333D8FC4F90020C
:102DA0001DF00CECB403B590021CE0FF42ABA3E0B5
:102DB000FE42ADEFF4FF5289EEF4FE5299EF5295C8
:102DC000EE529A90021CE0F45296A3E0F4529B7FDC
:102DD00003223000087575137576888006757500B6
:102DE0007576C890010A1213ACFFAEF0C39576EE6B
:102DF00095755015900131E0602090011F1213ACC1
:102E0000FDC3EF9DEE95F0401190020BE07002A320
:102E1000E0702A90013104F0802390001BE0B42080
:102E2000051215AF800690020B121522E4900131B5
:102E3000F0900209F0A3F090003A7410F090013184
:102E4000E06011900028E090003AB410047410F093
:102E5000227420F0229002B5EDF09002B412326597
:102E6000FDEE5407A3F0EC12320E2D123242E0FBBD
:102E70007A009002B612327D8005C333CE33CED8AD
:102E8000F9FFEE5AFEEF5B4E704D9002B4E0FE1279
:102E9000320E2D123242C083C082E0FF9002B6E0B3
:102EA000FD7401C8EDC8088002C333D8FC4FD0823E
:102EB000D083F0EE12329E12321E9002B4123255BE
:102EC000C083C0829002B5E0D082D08375F0021238
:102ED0000CA0EEF0A3EFF022023DE6E493A3F8E4A9
:102EE00093A34003F68001F208DFF48029E493A362
:102EF000F85407240CC8C333C4540F4420C883407B
:102F000004F456800146F6DFE4800B010204081049
:102F10002040809038EAE47E019360BCA3FF543FD8
:102F200030E509541FFEE493A360010ECF54C02581
:102F3000E060A840B8E493A3FAE493A3F8E493A371
:102F4000C8C582C8CAC583CAF0A3C8C582C8CAC5D5
:102F500083CADFE9DEE780BECDEFCD43AD105399E4
:102F6000EF439A10539BEF902EC07402F0147E0032
:102F7000C8EDC8088005C333CE33CED8F9FF902EF4
:102F8000C4EEF0A3EFF0902EC8EEF0A3EFF07410B3
:102F9000123EE1902EC0E030E2F9902EC0E4F074D1
:102FA00002F07420123EE1902EC0E030E2F9902E43
:102FB00000E0FEA3E0FF902EC4E4F0A3F0902EC04A
:102FC000F0439910539AEF539BEF5390EF229002E6
:102FD00018E014601414603924027051308807120C
:102FE000380ED205D200C203227F02123D2DEF60BF
:102FF000077F02122DD6C205208832900218740273
:10300000F0D203C205C2007F03122DD67F03023C1B
:10301000657F03123D2DEF60147F03122DD62088AB
:1030200007E4900218F0800312380EC203229002C7
:10303000187401F07F02122DD67F02123C6522C265
:1030400002E4FFEF1216CAE4F0A3F0EF1216DAE47E
:10305000F0A31216F6E4F0EF25E024F5F582E4344F
:1030600001F583E4F0A3F074EA2F1217CEE4F074B4
:10307000F02F121750E4F01217A2E4F074B72FF5F6
:1030800082E43401F583E4F00FEFB403B6E4900179
:10309000F3F0A3F090021AF0A3F09001FC747EF01C
:1030A000900195F0221217E1EF25E025E024FFF5CD
:1030B00082E4343EF583E4937014902EC412170218
:1030C000F5ABF45289121703902EC5F08013902EA1
:1030D000C5E4121702F5ADF45299121703902EC4ED
:1030E000F0EF25E025E02401F582E4343FF583E4A8
:1030F00093902EC3F0EF25E025E02402F582E4341E
:103100003FF583E493902ECAF022C10C41021C00CB
:1031100041021D004102190041022100C102C1010A
:10312000C1044102220041021800C103C100C105CF
:10313000430200000D0E4102C4004102C5004202DC
:10314000BF0000C106C108C1074102C1104101030F
:1031500000C10BC10A4101940002260000046D0069
:10316000000000410104104102230000200A062053
:103170000303300509E4FFFE12315CC20A2290020B
:103180000FE07002A3E0600512153A703A200003C8
:10319000123AEF1239AB7F01123D5D1226FC90020C
:1031A000AEEEF0A3EFF07B017A0279AE123AA8906E
:1031B00002AE1214EA1213C412144D1210A51235E5
:1031C000B2121889122B4D123BF4224389025395F7
:1031D000FD5396FD438002123E897F0C123738CA98
:1031E000EECACBEFCB7F0C123738EF2BFFEE3A90C5
:1031F00002B3F0A3EFF0900122E0FBA3E0FAA3E01A
:10320000F9120A2745F07005123ECD8015120A27E3
:10321000FD123ECDFEEF2DFFEE35F0C313FEEF1392
:10322000FFEE8FF0120B0F22E4FECFEECF123885A7
:10323000902EC07419F0902EC0E030E2F9902EC4A8
:10324000E4F0A3F0902EC0F012186D43904074008B
:103250002E12181775F002A42400121696E0FCA393
:10326000E0FD9001BA12163C75F002EE12167FECEA
:103270008DF0120B2E0EEEB403B02212153A702E02
:10328000900194E07008900205F0A37464F090013E
:10329000947401F0900029E0B4200812394C120D0A
:1032A000058003123DB99002137401F08017E49079
:1032B0000194F0900029E0B4200312394C900213DD
:1032C000E06002E4F0023F0B9002B0EBF0A3EAF002
:1032D000A3E9F0900205E07002A3E07031900132A2
:1032E000E0602BE4900132F01239AB1214C875087B
:1032F000017F01123D5D1226FC9002B01213C41230
:10330000158A0508E508C3941040E61215AF22306F
:103310000740C207902E42E0FFA3E09002B0CFF03A
:10332000A3EFF0120866121484EF244CFFEE341D54
:10333000F99001251213C4C98FF0120B0F1214A1BA
:103340009002B0E0FFA3E0902E42CFF0A3EFF01286
:1033500014C82212082EE4F5F275F30875EEFF7515
:10336000EF3F75EA81F5F675EB0700E5EC30E7FB1A
:10337000E4F5EC9002C2E0FEA3E0FF241BF582E43A
:103380003EF583E5F3F0EF241CF582E43EF583E59A
:10339000F2F075EB3022E4FDFE758A10538AEF00DF
:1033A0007C088D828C83E493FF6EFE0DBD00010CC2
:1033B000BC3FEFBDDFEC903FDFE4936E9002C27044
:1033C00008123F527404F08005123F52E4F0758AEF
:1033D00050538AEF0022300D3AC3900217E0942038
:1033E000900216E0940050069000037487F0C3909A
:1033F00001FEE094209001FDE0940050069000034F
:103400007487F0C20D900003E012176324061216B1
:1034100074EFF02290003AE0FC900104E06C602E22
:1034200090003AE0FE900104F090000BE090022141
:10343000F0540FF0EEB42005E04420800AECB41004
:103440000B900221E04410F090000BF0C28A2200A1
:10345000000000FFFFFFFF0000FFFFFFFFFFFFFF77
:10346000FFFF00FF000000FFFF000000FFFFFFFF65
:10347000FFFFFF00000000FFFFFFFFFFFFFFFFFF58
:10348000FF000000009002AEEFF0E024A412324DE5
:10349000E060037F01229002AEE0FF24A412324DCF
:1034A0007401F0EF1232B212321E9002AEE012320C
:1034B00071EEF0A3EFF07F00221214A1E4FF745428
:1034C0002FF582E43400F583E0FE75F002EFA424CA
:1034D00000F582E5F0342EF583E49324C0F582E410
:1034E000342EF583EEF00FEFB416D32243AB025324
:1034F00089FD5395FD5396FD53997F123C99121403
:10350000A1902EC27492F074061215D27403F0903A
:103510002EE9F0902EC4E4F0A37402F022758B1112
:10352000902F647440F0E4FEE4FF12320D12324139
:10353000E4F00FEFB40AF30EEEB403EC7F0990024F
:10354000A4E4F0A3DFFC902F647480F022CBEFCBD7
:1035500012324AE06024123288EB1232711232A821
:103560005018C3EF9DFFEE9CFEEB1232B212329365
:10357000400812324AE4F07F01227F00229002B319
:10358000EFF0123C99E4F5099002B3E0FFE509C3BE
:103590009F5007121AAA050980EE902EC0E4F0127F
:1035A000281F900105EEF0A3EFF022ED1313135442
:1035B0001FFEED5407FD12320D123241C083C0824E
:1035C000E0FFCEEDCE7401C8EEC8088002C333D848
:1035D000FCF45FD082D083F022E4F5B2F5BA758DA9
:1035E00020438D20538D7F53AAF7F58BE5DB20E236
:1035F00011200C0EE4F58A758703000000758A50CF
:10360000D20A758B112212084E53A87F1233FC1276
:10361000081E123E1243A880123F8D9000FFE0600A
:10362000069001FF7401F0122DE41230AB12200459
:1036300080F59002C2E0FFA3E09002C6CFF0A3EFB6
:10364000F0E4F5DA75DA4043DA2075D74075DA58D8
:1036500075D90143A90875B80875F8082275AD40F9
:103660005399BF1214A1902EC27412F0E41215D215
:103670007407F0902EE9F0902EC5E4F0902EC474FB
:1036800040F02201F40028002801F4009603E8012C
:10369000F403E81770006403E8003202580258018E
:1036A0002C01F403E8271000C8902EC07402F0909B
:1036B0002EC77471F0902ECD74C0F0A374FFF0A3E8
:1036C000F0902EC37401F0902ECAF0221217E1E49C
:1036D000FF12169F0FEFB416F8902EC4E4F0A3F07B
:1036E000123A08123A089001FB7401F0229002B4D9
:1036F000E0C4F8540FC868FF9002B3E0C454F04827
:1037000022902EC2F0902EC0E04419F022009600C4
:103710008200B4009B008700B9008C007800AA00EA
:103720000110100220090802401208E5B230E0053D
:10373000E5AA20E013E4900215F075B28E75B6F993
:10374000F5B743B20143AA012253997F1214A19005
:103750002EC27412F0902EC77401F0902EC47480A3
:10376000F0A3E4F022A3E0FCA3E02FF582E43CF513
:103770008322E0FEA3E0F5828E83A322902EC07404
:1037800019F0902EC0E030E2F9902EC0E4F0221241
:10379000352E9000FFE060081232BCE49000FFF08C
:1037A00022EE30E707C3E49FFFE49EFE22123F991A
:1037B000023CFDD2AF32D2AF32023F0B000000001C
:1037C00000000000000000000000000000000000F9
:1037D00000000000000000000000000000000000E9
:1037E00000000000000000000000000000000000D9
:1037F0000000000000000000000000000000009B2E
:1038000000000000000000000000000000000000B8
:1038100000000000000000000000000000000000A8
:00000001FF
